:060000000A128A11FC2F18
:1000120083120313320831043004031908008030BC
:10002200B2060800831203135F08F9005E08F800A5
:100032000A128A159C200A128A1178088312031365
:10004200A3007908A4007A08A500C030A0007F3080
:10005200A1004430A2000A128A15C2240A128A118F
:10006200831203132008C3002108C4002208C5001C
:100072000A128A15D5200A128A118312031327083D
:10008200A9002608A8000A128A15B0200A128A11AD
:10009200831203132808C0002908C1002A08C200DD
:1000A2000A128A1180200A128A118312031340084D
:1000B200D0004108D1004208D2000A128A150F234B
:1000C2000A128A11831203135108DF005008DE005E
:1000D2009D125E1C7028831203131D16732883124F
:1000E20003131D125F08E1005E08E0000310E10C3B
:1000F200E00C0310E10CE00C60089B000800831286
:1001020003134008C6004108C7004208C800031094
:10011200470D480DC9004908CA004A08031D98281E
:100122000030C0000030C1000030C20008004308A7
:10013200C6004408C7004508C8000310470D480D13
:10014200C9004908CF004F08031DAE280030C00087
:100152000030C1000030C20008004F087B3EC600DC
:100162004608CA074008C6004108C7004208C8003E
:1001720010300310C80CC70CC60CFF3E031DBA2872
:100182004608C9004908CF004308C6004408C70012
:100192004508C80010300310C80CC70CC60CFF3E3F
:1001A200031DCC284608C9004908CF068030C60086
:1001B2004608CF05C117C417FF30C305FF30C40579
:1001C2000030C5050030CB000030CC000030CD003F
:1001D2000730C6004608CE00401CFD284308CB0766
:1001E200440803110318440A031DCC0745080311F0
:1001F2000318450A031DCD0701300310C20CC10CC0
:10020200C00CFF3E031DFE2801300310C30DC40DB8
:10021200C50DFF3E031D06290130CE02031DED2848
:100222000930C6004608CE00401C25294308CB07EA
:10023200440803110318440A031DCC07450803119F
:100242000318450A031DCD0701300310C20CC10C6F
:10025200C00CFF3E031D262901300310CD0CCC0C2F
:10026200CB0CFF3E031D2E290130CE02031D1529A2
:100272004B08F0004C08F1004D08F2004A08C60095
:100282004608F3004F08C7004708F4000A128A150F
:100292003622700883120313C0007108C10072086D
:1002A200C2000800831203133308B9003408BA00ED
:1002B2003508BB0003103A0D3B0DBC003C08BF00E3
:1002C2003608B9003708BA003808BB0003103A0DE7
:1002D2003B0DBC003C08BE003F0803197C293E08C8
:1002E2003F02031883293F03FF3A3E07B900193042
:1002F2003902031C83293608B3003708B4003808D2
:10030200B50008003E08031908003F083E02031822
:1003120092293E03FF3A3F07B90019303902031808
:1003220008000630B9003908BD00B51BBD17B81B5F
:100332003D17B417FF30B305FF30B4050030B505E3
:10034200B717FF30B605FF30B7050030B8053E08D5
:100352003F020318D22901300310B60DB70DB80DB4
:10036200FF3E031DAD290130BE023E083F060319C0
:10037200CD290130BD023D0807390319CD29AC2929
:1003820001300310B50CB40CB30CFF3E031DC2299F
:100392000130B9003908BF073F083E060319FB299F
:1003A200C1293F083E020318FB2901300310B30D97
:1003B200B40DB50DFF3E031DD7290130BF023E0823
:1003C2003F060319F7290130BD023D080739031919
:1003D200F729D62901300310B80CB70CB60CFF3E32
:1003E200031DEC290130B9003908BE073F083E065B
:1003F200031DEB29BD1F0D2AFF30B306FF30B406E3
:10040200FF30B5060130B307003003180130B407DE
:10041200003003180130B5073D1F1F2AFF30B60612
:10042200FF30B706FF30B8060130B60700300318B8
:100432000130B707003003180130B807BD01330897
:10044200B607340803110318340A031DB707350829
:1004520003110318350A031DB807B81F422AFF30DB
:10046200B606FF30B706FF30B8060130B6070030D7
:1004720003180130B707003003180130B807BD0177
:10048200BD0A3608F0003708F1003808F2003F08CC
:10049200B9003908F3003D08BA003A08F4000A121C
:1004A2008A153622700883120313B3007108B40050
:1004B2007208B500080003133008B6003108B7000F
:1004C2003208B8000A128A1153210A128A118312C1
:1004D2000313330883160313C5008312031334086E
:1004E20083160313C60083120313350883160313FE
:1004F200C700C030F0007F30F1004430F2004808FD
:10050200F3004908F4004A08F5000A128A15D921B5
:100512000A128A110318952AC03083160313C800E1
:100522007F30C9004430CA00C030F0007F30F10093
:100532004430F200831603134508F3004608F40022
:100542004708F5000A128A15D9210A128A110318DE
:10055200B22AC03083160313C5007F30C600443070
:10056200C700831603134808F0004908F1004A083F
:10057200F2000030F3000030F4000030F5000A12FF
:100582008A15D9210A128A110318072B8312031321
:10059200081088140030A0002030A1004030A200D2
:1005A20083160313480883120313B0008316031340
:1005B200490883120313B100831603134A088312F6
:1005C2000313B2000A128A1109200A128A11831235
:1005D20003133008A3003108A4003208A5000A1250
:1005E2008A15C2240A128A11831203132008831661
:1005F2000313C80083120313210883160313C900CF
:1006020083120313220883160313CA0083160313EB
:100612004508F0004608F1004708F2000030F300F8
:100622000030F4000030F5000A128A15D9210A12AE
:100632008A1103185C2B83120313081188150030EA
:10064200A0002030A1004030A20083160313450809
:1006520083120313B0008316031346088312031395
:10066200B10083160313470883120313B2000A1260
:100672008A1109200A128A11831203133008A30077
:100682003108A4003208A5000A128A15C2240A12EF
:100692008A1183120313200883160313C5008312E1
:1006A2000313210883160313C600831203132208BF
:1006B20083160313C700831603134508831203131B
:1006C200D00083160313460883120313D100831646
:1006D2000313470883120313D2000A128A150F2349
:1006E2000A128A1183120313510883160313B800E6
:1006F20083120313500883160313B70038088312BA
:100702000313DF0083160313370883120313DE007B
:100712000A128A15A2220A128A11831603134808A2
:1007220083120313D00083160313490883120313A1
:10073200D100831603134A0883120313D2000A124C
:100742008A150F230A128A11831203135108831682
:100752000313BA0083120313500883160313B9005C
:100762003A0883120313DF00831603133908831236
:100772000313DE000A128A1113200A128A1168304A
:1007820083120313E300E330E200E20BC62BE30B18
:10079200C62BCB2B8312031308148810081588115B
:1007A200013083160313A2070318A30A0030A3071C
:1007B2002308803AFF0080307F02031DE22B1430B1
:1007C2002202031CF92F83120313061C881A812F9D
:1007D200013083160313A0000030A100A401A5017B
:1007E2002508803AFF0080307F02031DFA2B143067
:1007F20024020318812F003083160313C5002F3003
:10080200C6004430C7000030C8002F30C900443051
:10081200CA00CB01CC01C301C401831203138619A0
:10082200282C831603134B08013ECB004C080318F7
:10083200013E003ECC004308F73EC30044080318C3
:10084200013EFF3EC4000130B5000030B600831205
:100852000619412C831603134B08013ECB004C08AA
:100862000318013E003ECC004308FB3EC30044088F
:100872000318013EFF3EC4000130B5000030B6004F
:10088200831286185A2C831603134B08013ECB00A1
:100892004C080318013E003ECC004308FD3EC30055
:1008A20044080318013EFF3EC4000130B500003089
:1008B200B60083120618672C831603134B08013EF9
:1008C200CB004C080318013E003ECC0083160313F4
:1008D2004B084C040319BE2C4C08F1004B08F000E5
:1008E2004408F3004308F2000A128A1580210A1212
:1008F2008A11710883120313A9007008A8000A1252
:100902008A15B0200A128A1183120313280883164B
:100912000313AC0083120313290883160313AD00DB
:10092200831203132A0883160313AE002C088312C2
:100932000313B000831603132D0883120313B100AF
:10094200831603132E0883120313B2000A128A11AC
:1009520009200A128A118312031330088316031323
:10096200BD0083120313310883160313BE008312E2
:100972000313320883160313BF000130BB0000309B
:10098200BC00290883120313C000831603132A082C
:1009920083120313C100831603132B08831203135C
:1009A200C200831603133D0883120313B300831698
:1009B20003133E0883120313B400831603133F0884
:1009C20083120313B500831603132F088312031334
:1009D200B00083160313300883120313B100831689
:1009E2000313310883120313B2000A128A11092079
:1009F2000A128A11831203133008B6003108B700B5
:100A02003208B8000A128A1153210A128A1183127B
:100A120003133308C3003408C4003508C5000A12A2
:100A22008A1180200A128A11831203134008831646
:100A32000313B20083120313410883160313B30096
:100A420083120313420883160313B400320883127D
:100A52000313B30083160313330883120313B40082
:100A620083160313340883120313B500831603138A
:100A72003D0883120313C000831603133E0883123A
:100A82000313C100831603133F0883120313C2002A
:100A920083160313260883120313C300831603135A
:100AA200270883120313C400831603132808831232
:100AB2000313C5000A128A1180200A128A118312B6
:100AC20003134008B6004108B7004208B8000A12F2
:100AD2008A1153210A128A118312031333088316CF
:100AE2000313C00083120313340883160313C100D7
:100AF20083120313350883160313C2003D08AF00A7
:100B02003E08B0003F08B100450883120313B3004A
:100B120083160313460883120313B40083160313C8
:100B2200470883120313B500831603134008831288
:100B32000313B00083160313410883120313B10099
:100B420083160313420883120313B2000A128A1196
:100B520009200A128A11831203133008B6003108E1
:100B6200B7003208B8000A128A1153210A128A11F8
:100B720083120313330883160313C500831203136E
:100B8200340883160313C600831203133508831631
:100B92000313C700480883120313B3008316031319
:100BA200490883120313B400831603134A088312FD
:100BB2000313B5000030A000A030A1004030A20015
:100BC20083160313400883120313A300831603132F
:100BD200410883120313A4008316031342088312ED
:100BE2000313A5000A128A15C2240A128A1183125B
:100BF20003132008B6002108B7002208B8000A1221
:100C02008A1153210A128A1183120313330883169D
:100C12000313C80083120313340883160313C90095
:100C220083120313350883160313CA00C030F00081
:100C32007F30F1004430F2004808F3004908F40024
:100C42004A08F5000A128A15D9210A128A110318D4
:100C5200322EC03083160313C8007F30C9004430DF
:100C6200CA00C030F0007F30F1004430F200831639
:100C720003134508F3004608F4004708F5000A127A
:100C82008A15D9210A128A1103184F2EC0308316F1
:100C92000313C5007F30C6004430C7008316031318
:100CA2004808F0004908F1004A08F2000030F30059
:100CB2000030F4000030F5000A128A15D9210A1218
:100CC2008A110318A42E831203130810881400300B
:100CD200A0002030A1004030A20083160313480870
:100CE20083120313B00083160313490883120313FC
:100CF200B100831603134A0883120313B2000A12C7
:100D02008A1109200A128A11831203133008A300E0
:100D12003108A4003208A5000A128A15C2240A1258
:100D22008A1183120313200883160313C800831247
:100D32000313210883160313C90083120313220825
:100D420083160313CA00831603134508F0004608EE
:100D5200F1004708F2000030F3000030F4000030E8
:100D6200F5000A128A15D9210A128A110318F92EDE
:100D720083120313081188150030A0002030A1004F
:100D82004030A20083160313450883120313B000F8
:100D920083160313460883120313B1008316031349
:100DA200470883120313B2000A128A1109200A1299
:100DB2008A11831203133008A3003108A4003208F9
:100DC200A5000A128A15C2240A128A118312031379
:100DD200200883160313C500831203132108831608
:100DE2000313C60083120313220883160313C700DA
:100DF20083160313450883120313D00083160313CB
:100E0200460883120313D100831603134708831283
:100E12000313D2000A128A150F230A128A118312AF
:100E22000313510883160313B800831203135008E7
:100E320083160313B700380883120313DF008316E7
:100E42000313370883120313DE000A128A15A22243
:100E52000A128A1183160313480883120313D0005F
:100E620083160313490883120313D1008316031355
:100E72004A0883120313D2000A128A150F230A1298
:100E82008A1183120313510883160313BA008312C3
:100E92000313500883160313B9003A08831203138D
:100EA200DF0083160313390883120313DE000A12CC
:100EB2008A1113200A128A11683083120313E30085
:100EC200E330E200E20B632FE30B632F682F831200
:100ED20003130814881008158811013083160313B0
:100EE200A4070318A50A0030A5072508803AFF00C9
:100EF20080307F02031D7F2F14302402031CFC2B41
:100F020083160313450883120313D00083160313B9
:100F1200460883120313D100831603134708831272
:100F22000313D2000A128A150F230A128A1183129E
:100F32000313510883160313B800831203135008D6
:100F420083160313B700380883120313DF008316D6
:100F52000313370883120313DE000A128A15A22232
:100F62000A128A1183160313480883120313D0004E
:100F720083160313490883120313D1008316031344
:100F82004A0883120313D2000A128A150F230A1287
:100F92008A1183120313510883160313BA008312B2
:100FA2000313500883160313B9003A08831203137C
:100FB200DF0083160313390883120313DE000A12BB
:100FC2008A1113200A128A11683083120313E30074
:100FD200E330E200E20BEB2FE30BEB2FF02F831257
:100FE200031308148810081588110A128A110028A0
:0E0FF2000A128A15FF2D83010A128A152C2C73
:101138007808F0007908F100F2018E30FB007B0896
:10114800F300F4010A128A1536227008F8007108B3
:10115800F9007208FA000800FD0183120313A91FA1
:10116800BC28A809A909A80A0319A90AFD01FD0AAA
:101178002808F0002908F100F2018E30AB002B0896
:10118800F3007D08AC002C08F4000A128A153622F8
:10119800700883120313A8007108A9007208AA0036
:1011A8000800831203136408F9006508FA0066084A
:1011B800FB006708FC0002300310F90DFA0DFB0D67
:1011C800FC0DFF3E031DE0287C08F3007B08F200BD
:1011D8007A08F1007908F0000030F700F430F600E2
:1011E8002430F5000030F4000A128A159D23710896
:1011F80083120313A7007008A600080083120313C4
:101208002608F9002708FA002808FB002908FC002E
:1012180002300310F90DFA0DFB0DFC0DFF3E031D06
:101228000D2902300310F90DFA0DFB0DFC0DFF3EE0
:10123800031D16297C08F3007B08F2007A08F100E8
:101248007908F0000030F700F430F6002430F5009B
:101258000030F4000A128A159D237008FF3E831699
:1012680003139200831203132908E7002808E600F5
:101278002708E5002608E40008008312031326085F
:10128800F9002708FA002808FB002908FC000230AA
:101298000310F90DFA0DFB0DFC0DFF3E031D4C2943
:1012A80002300310F90DFA0DFB0DFC0DFF3E031D76
:1012B80055297C08F3007B08F2007A08F1007908C8
:1012C800F0000030F700F430F6002430F50000306C
:1012D800F4000A128A159D237008FF3E8316031333
:1012E8009200831203132908E7002808E60027085C
:1012F800E5002608E4000800F601F11F8A29F00934
:10130800F109F00A0319F10AF601F60AF31F952903
:10131800F209F309F20A0319F30A0130F400740818
:10132800F606F701F801700871040319CC29F501D4
:10133800F50AF11BAB2901300310F00DF10DFF3E4A
:10134800031DA0290130F4007408F5079D29013018
:101358000310F70DF80DFF3E031DAC297108730249
:10136800031DB82970087202031CC1297008F20213
:101378007108031CF303F302771401300310F10C16
:10138800F00CFF3E031DC2290130F502031DAB29F5
:1013980076080319D429F709F809F70A0319F80A8E
:1013A8007808F1007708F0000800F21F002A0030E2
:1013B800F6000030F7008030F8007009F900710974
:1013C800FA007209FB00F90A0319FA0A0319FB0A61
:1013D8007908F6077A0803187A0FF329F429F7072A
:1013E8007B0803187B0FF929FA29F8077608F0001B
:1013F8007708F1007808F200F51F272A0030F60078
:101408000030F7008030F8007309F9007409FA0019
:101418007509FB00F90A0319FA0A0319FB0A790886
:10142800F6077A0803187A0F1A2A1B2AF7077B0887
:1014380003187B0F202A212AF8077608F30077087B
:10144800F4007808F5008030F2068030F50675085B
:101458007202031D080074087102031D0800730856
:1014680070020800730803193E2A72087104700498
:10147800031D512A0030F0000030F1000030F20066
:1014880008000130F5007508F30701300310F20C6D
:10149800F10CF00CFF3E031D4A2AFE3072050319B9
:1014A8006C2A452A0130F5007508F3070130F0076A
:1014B800003003180130F107003003180130F2073B
:1014C80001300310F20CF10CF00CFF3E031D652AED
:1014D800FF30720503197B2A562A0130F3020130C6
:1014E8000310F00DF10DF20DFF3E031D742AF11BE0
:1014F800812A023073020318712A7318892AFF306F
:10150800F0057F30F105FF30F2050310F30C730886
:10151800F500F601F70110300310F50DF60DF70D83
:10152800FF3E031D902A7508F0047608F104770839
:10153800F204740803190800F21708008312031351
:101548005F08F9005E08F8000A128A159C200A1242
:101558008A15780883120313A3007908A4007A086F
:10156800A500C030A0007F30A1004430A2000A12BC
:101578008A15C2240A128A15831203132008C3008D
:101588002108C4002208C5000A128A15D5200A12AB
:101598008A15831203132708A9002608A8000A122F
:1015A8008A15B0200A128A15831203132808C0006E
:1015B8002908C1002A08C2000A128A1180200A12CA
:1015C8008A15831203134008D0004108D10042084D
:1015D800D2000A128A150F230A128A1583120313DE
:1015E8005108DF005008DE0097125E1CFF2A8312A4
:1015F80003131716022B8312031317125F08E10057
:101608005E08E0000310E10CE00C0310E10CE00CB4
:10161800600895000800831203135008D40051088D
:10162800D5005208D6000310550D560DD70057089F
:10163800DD005D08031D292B0030D3000030D200E7
:101648000030D1000030D00008005008D400510804
:10165800D5005208D60017300310D60CD50CD40C80
:10166800FF3E031D302B5408D7005708D800D11768
:10167800FF30D005FF30D1050030D2055008D90021
:101688005108DA005208DB00DC018E30DD02DD1F74
:101698006B2B5D08803A8F3E03185B2B0030D3001C
:1016A8000030D2000030D1000030D00008000130F6
:1016B8000310DC0CDB0CDA0CD90CFF3E031D5C2B91
:1016C8000130D4005408DD070319862B5B2B183032
:1016D8005D02031C832B0030D3000030D2000030A1
:1016E800D1000030D00008000130D4000310D90D1B
:1016F800DA0DDB0DDC0DD40B7A2B0130DD025D0831
:10170800031D782B58080319942BD909DA09DB092A
:10171800DC09D90A0319DA0A0319DB0A0319DC0AF6
:101728005C08D3005B08D2005A08D1005908D000E1
:10173800080083120313A101F31FAF2BF009F1096D
:10174800F209F309F00A0319F10A0319F20A031955
:10175800F30AA101A10AF71FC02BF409F509F6093C
:10176800F709F40A0319F50A0319F60A0319F70A1F
:101778000130F8007808A1060030A5000030A40068
:101788000030A3000030A2007308720471047004D2
:101798000319152CA001A00AF31BE02B0130F80057
:1017A8000310F00DF10DF20DF30DF80BD42B0130F1
:1017B800F8007808A007D02B0130F8000310A20D1C
:1017C800A30DA40DA50DF80BE22B73087702031DDA
:1017D800F72B72087602031DF72B71087502031D9B
:1017E800F72B70087402031C082C7008F4027108A7
:1017F800031C710FF5027208031C720FF6027308BE
:10180800031C730FF702221401300310F30CF20CBF
:10181800F10CF00CFF3E031D092C0130A002031D42
:10182800E02B21080319232CA209A309A409A5095F
:10183800A20A0319A30A0319A40A0319A50A250869
:10184800F3002408F2002308F1002208F000080041
:10185800831603138701F03088000F3086000030AC
:1018680083120313A9000030A8001330A7008830A2
:10187800A6000A128A1502210A128A15003083125C
:101888000313A9000030A8001330A7008830A60071
:101898000A128A1541210A128A1500308316031389
:1018A800A6000C30A7004330A8000030A900AF30D4
:1018B800AA004330AB00CB01CC01C301C401013005
:1018C800B5000030B600672C8316031335083604BC
:1018D800031DBF2C3B0A031D862C3C0A031D862CC6
:1018E8008312031308118815003083160313C500EB
:1018F800FA30C6004330C7008030C8003B30C9000A
:101908004430CA003B033C04031D9C2C8312031380
:1019180008108814803083160313C5003B30C600B6
:101928004430C7000030C800FA30C9004330CA004C
:101938003B083C04031DA62C8312031308108810CF
:101948000811881183160313450883120313D00066
:1019580083160313460883120313D1008316031357
:10196800470883120313D2000A128A150F23831221
:101978000A128A157A2D0A128A15E72D8312031383
:101988002308A6002408A7002508A8000310270D8F
:10199800280DA9002908AE002E08031DDA2C0030F6
:1019A800A0000030A1000030A20008002008A60016
:1019B8002108A7002208A8000310270D280DA90058
:1019C8002908AF002F08031DF02C0030A0000030BC
:1019D800A1000030A20008000030AB000030AC00CD
:1019E8000030AD0089302F07A6002608AE02230874
:1019F800A6002408A7002508A80010300310A80C8A
:101A0800A70CA60CFF3E031D022D2608A9002908D5
:101A1800AF002008A6002108A7002208A80010305F
:101A28000310A80CA70CA60CFF3E031D142D2608B6
:101A3800A9002908AF068030A6002608AF05A4171C
:101A4800FF30A305FF30A4050030A505A117FF301E
:101A5800A005FF30A1050030A2051830A600260811
:101A6800AA0001300310AB0DAC0DAD0DFF3E031DF8
:101A7800362D22082502031D472D21082402031DA7
:101A8800472D20082302031C542D2008A3022108F7
:101A9800031C210FA4022208031C220AA5022B14EE
:101AA80001300310A30DA40DA50DFF3E031D552DF8
:101AB8000130AA02031D352D2B08F0002C08F10077
:101AC8002D08F2002E08A6002608F3002F08A7000C
:101AD8002708F4000A128A153622700883120313A5
:101AE800A0007108A1007208A200080003135108A1
:101AF80083160313B80083120313500883160313C5
:101B0800B700380883120313DF008316031337085E
:101B180083120313DE000A128A15A2220A128A15FA
:101B280083160313480883120313D0008316031384
:101B3800490883120313D100831603134A0883123A
:101B48000313D2000A128A150F230A128A15831268
:101B58000313510883160313BA00831203135008A2
:101B680083160313B9003A0883120313DF008316A0
:101B78000313390883120313DE000A128A11132093
:101B88000A128A15683083120313E300E330E20077
:101B9800E20BCC2DE30BCC2DD12D83120313861928
:101BA800061DDE2D8618061CDE2D881B081FDE2D5F
:101BB800881AE42D013083160313B5000030B600EF
:101BC8000A128A15682C83120313061C8619FD2F26
:101BD800FF3083160313A000FF30A100A201A30168
:101BE8002308803AFF0080307F02031DFD2D14304A
:101BF80022020318FD2F003083160313C5002F306F
:101C0800C6004430C7000030C8002F30C900443037
:101C1800CA00CB01CC01C301C40183120313061807
:101C2800232E831603134B08013ECB004C080318E0
:101C3800013E003ECC000130B5000030B6008312F2
:101C4800881B382E831603134B08013ECB004C0823
:101C58000318013E003ECC004308033EC30044087D
:101C68000318013E003EC4008312081B512E831640
:101C780003134B08013ECB004C080318013E003EFD
:101C8800CC004308053EC30044080318013E003E4B
:101C9800C4000130B5000030B6008312881A6A2EDD
:101CA800831603134B08013ECB004C080318013E72
:101CB800003ECC004308093EC30044080318013E17
:101CC800003EC4000130B5000030B600831603138F
:101CD8004B084C040319C12E4C08F1004B08F000C6
:101CE8004408F3004308F2000A128A1580210A12F8
:101CF8008A15710883120313A9007008A8000A1234
:101D08008A15B0200A128A1583120313280883162D
:101D18000313AC0083120313290883160313AD00C1
:101D2800831203132A0883160313AE002C088312A8
:101D38000313B000831603132D0883120313B10095
:101D4800831603132E0883120313B2000A128A1192
:101D580009200A128A158312031330088316031305
:101D6800BD0083120313310883160313BE008312C8
:101D78000313320883160313BF00FF30BB00FF3084
:101D8800BC00290883120313C000831603132A0812
:101D980083120313C100831603132B088312031342
:101DA800C200831603133D0883120313B30083167E
:101DB80003133E0883120313B400831603133F086A
:101DC80083120313B500831603132F08831203131A
:101DD800B00083160313300883120313B10083166F
:101DE8000313310883120313B2000A128A1109205F
:101DF8000A128A15831203133008B6003108B70097
:101E08003208B8000A128A1153210A128A1583125D
:101E180003133308C3003408C4003508C5000A1288
:101E28008A1180200A128A15831203134008831628
:101E38000313B20083120313410883160313B3007C
:101E480083120313420883160313B4003208831263
:101E58000313B30083160313330883120313B40068
:101E680083160313340883120313B5008316031370
:101E78003D0883120313C000831603133E08831220
:101E88000313C100831603133F0883120313C20010
:101E980083160313260883120313C3008316031340
:101EA800270883120313C400831603132808831218
:101EB8000313C5000A128A1180200A128A15831298
:101EC80003134008B6004108B7004208B8000A12D8
:101ED8008A1153210A128A158312031333088316B1
:101EE8000313C00083120313340883160313C100BD
:101EF80083120313350883160313C2003D08AF008D
:101F08003E08B0003F08B100400883120313B30035
:101F180083160313410883120313B40083160313B3
:101F2800420883120313B50083160313480883126B
:101F38000313B60083160313490883120313B7006B
:101F4800831603134A0883120313B8000A128A116E
:101F580053210A128A1583120313330883160313B5
:101F6800C80083120313340883160313C9008312AD
:101F78000313350883160313CA0045088312031395
:101F8800B30083160313460883120313B4008316A1
:101F98000313470883120313B5008316031340087D
:101FA80083120313A3008316031341088312031338
:101FB800A40083160313420883120313A5000030FC
:101FC800A000C030A1004030A2000A128A15C22425
:101FD8000A128A15831203132008B0002108B100E1
:101FE8002208B2000A128A11092083120A128A11E1
:081FF8005C2A0A128A11E42B95
:02400E00B23FBF
:00000001FF
