:060000000A128A11FC2F18
:10056000831203139715171512158316031307111A
:100570000800831203139D151D15121492101215F5
:1005800083160313871008007808F0007908F1003B
:10059000F2018E30FB007B08F300F4010A128A118D
:1005A0000E247008F8007108F9007208FA000800BB
:1005B000FD0183120313A91FE42AA809A909A80AA7
:1005C0000319A90AFD01FD0A2808F0002908F10015
:1005D000F2018E30AB002B08F3007D08AC002C0834
:1005E000F4000A128A110E24700883120313A80063
:1005F0007108A9007208AA000800831203135808A2
:10060000F9005908FA005A08FB005B08FC000230A8
:100610000310F90DFA0DFB0DFC0DFF3E031D082B19
:100620007C08F3007B08F2007A08F1007908F000FA
:100630000030F700F430F6002430F5000030F4000C
:100640000A128A11E225710883120313A7007008A9
:10065000A6000800831203132608F9002708FA00F1
:100660002808FB002908FC0002300310F90DFA0DE0
:10067000FB0DFC0DFF3E031D352B02300310F90D61
:10068000FA0DFB0DFC0DFF3E031D3E2B7C08F30015
:100690007B08F2007A08F1007908F0000030F700DA
:1006A000F430F6002430F5000030F4000A128A110C
:1006B000E2257008FF3E8316031392008312031392
:1006C0002908DB002808DA002708D9002608D80006
:1006D0000800831203132608F9002708FA002808E7
:1006E000FB002908FC0002300310F90DFA0DFB0D88
:1006F000FC0DFF3E031D742B02300310F90DFA0DA3
:10070000FB0DFC0DFF3E031D7D2B7C08F3007B08D9
:10071000F2007A08F1007908F0000030F700F430B8
:10072000F6002430F5000030F4000A128A11E225A8
:100730007008FF3E831603139200831203132908E7
:10074000DB002808DA002708D9002608D8000800AE
:10075000831603138701880101308600003083125D
:100760000313A9000030A8001330A7008830A600AA
:100770000A128A112A230A128A11003083120313E3
:10078000A9000030A8001330A7008830A6000A1284
:100790008A1169230A128A1183120313D601D70121
:1007A000D401D501861BDC2B8430D6000330D70062
:1007B0008430D4000330D500683083120313D30093
:1007C000E330D200D20BE22BD30BE22BE72B8312C8
:1007D000031388150812881408110A128A11B0220E
:1007E0000A128A110A128A11B9220A128A11831274
:1007F00003135508CF005408CE000A128A117A2438
:100800000A128A11831203135708CF005608CE002C
:100810000A128A11E7240A128A11CC2B73080319D1
:10082000162C720871047004031D292C0030F0008E
:100830000030F1000030F20008000130F5007508CA
:10084000F30701300310F20CF10CF00CFF3E031D16
:10085000222CFE3072050319442C1D2C0130F500AA
:100860007508F3070130F007003003180130F10775
:10087000003003180130F20701300310F20CF10CC4
:10088000F00CFF3E031D3D2CFF3072050319532C65
:100890002E2C0130F30201300310F00DF10DF20D9A
:1008A000FF3E031D4C2CF11B592C02307302031820
:1008B000492C7318612CFF30F0057F30F105FF30B3
:1008C000F2050310F30C7308F500F601F701103080
:1008D0000310F50DF60DF70DFF3E031D682C75088E
:1008E000F0047608F1047708F2047408031908008C
:1008F000F2170800831203134F08F9004E08F8009E
:100900000A128A11C4220A128A1178088312031368
:10091000A3007908A4007A08A500C030A0007F30A9
:10092000A1004430A2000A128A1171260A128A110B
:10093000831203132008B3002108B4002208B50075
:100940000A128A11FD220A128A1183120313270840
:10095000A9002608A8000A128A11D8220A128A11B0
:10096000831203132808B0002908B1002A08B20036
:100970000A128A1129270A128A11831203133008D6
:10098000C0003108C1003208C2000A128A11542581
:100990000A128A11831203134108CF004008CE00C7
:1009A00097124E1CD72C831203131716DA2C8312BE
:1009B000031317124F08D1004E08D0000310D10CBA
:1009C000D00C0310D10CD00C5008950008008312F5
:1009D00003134F08F9004E08F8000A128A11C422C6
:1009E0000A128A11780883120313A3007908A4005D
:1009F0007A08A500C030A0007F30A1004430A200DA
:100A00000A128A1171260A128A118312031320080E
:100A1000B3002108B4002208B5000A128A11FD2291
:100A20000A128A11831203132708A9002608A800B6
:100A30000A128A11D8220A128A1183120313280873
:100A4000B0002908B1002A08B2000A128A11292729
:100A50000A128A11831203133008C0003108C10042
:100A60003208C2000A128A1154250A128A1183120E
:100A700003134108CF004008CE009D124E1C442DA8
:100A8000831203131D16472D831203131D124F08E3
:100A9000D1004E08D0000310D10CD00C0310D10CA3
:100AA000D00C50089B000800831203134008C400B8
:100AB0004108C5004208C6000310450D460DC70099
:100AC0004708CD004D08031D6E2D0030C3000030D7
:100AD000C2000030C1000030C00008004008C4005F
:100AE0004108C5004208C60017300310C60CC50CEB
:100AF000C40CFF3E031D752D4408C7004708C800FD
:100B0000C117FF30C005FF30C1050030C2054008E5
:100B1000C9004108CA004208CB00CC018E30CD028A
:100B2000CD1FB02D4D08803A8F3E0318A02D003008
:100B3000C3000030C2000030C1000030C000080017
:100B400001300310CC0CCB0CCA0CC90CFF3E031DAA
:100B5000A12D0130C4004408CD070319CB2DA02DD1
:100B600018304D02031CC82D0030C3000030C200F5
:100B70000030C1000030C00008000130C400031084
:100B8000C90DCA0DCB0DCC0DC40BBF2D0130CD024C
:100B90004D08031DBD2D48080319D92DC909CA09DF
:100BA000CB09CC09C90A0319CA0A0319CB0A0319CC
:100BB000CC0A4C08C3004B08C2004A08C1004908CF
:100BC000C000080083120313A101F31FF42DF009E4
:100BD000F109F209F309F00A0319F10A0319F20AFB
:100BE0000319F30AA101A10AF71F052EF409F5095B
:100BF000F609F709F40A0319F50A0319F60A0319A5
:100C0000F70A0130F8007808A1060030A50000308E
:100C1000A4000030A3000030A20073087204710425
:100C2000700403195A2EA001A00AF31B252E0130CF
:100C3000F8000310F00DF10DF20DF30DF80B192E65
:100C40000130F8007808A007152E0130F8000310D5
:100C5000A20DA30DA40DA50DF80B272E7308770286
:100C6000031D3C2E72087602031D3C2E710875028E
:100C7000031D3C2E70087402031C4D2E7008F402F4
:100C80007108031C710FF5027208031C720FF60243
:100C90007308031C730FF702221401300310F30CC6
:100CA000F20CF10CF00CFF3E031D4E2E0130A002A1
:100CB000031D252E21080319682EA209A309A409E2
:100CC000A509A20A0319A30A0319A40A0319A50A6C
:100CD0002508F3002408F2002308F1002208F000A0
:100CE0000800831203132308A6002408A700250880
:100CF000A8000310270D280DA9002908AE002E0812
:100D0000031D892E0030A0000030A1000030A20099
:100D100008002008A6002108A7002208A800031048
:100D2000270D280DA9002908AF002F08031D9F2EAD
:100D30000030A0000030A1000030A2000800003008
:100D4000AB000030AC000030AD0089302F07A600AA
:100D50002608AE022308A6002408A7002508A8003C
:100D600010300310A80CA70CA60CFF3E031DB12EDB
:100D70002608A9002908AF002008A6002108A7001E
:100D80002208A80010300310A80CA70CA60CFF3EE8
:100D9000031DC32E2608A9002908AF068030A6002F
:100DA0002608AF05A417FF30A305FF30A4050030C7
:100DB000A505A117FF30A005FF30A1050030A20551
:100DC0001830A6002608AA0001300310AB0DAC0DA8
:100DD000AD0DFF3E031DE52E22082502031DF62E54
:100DE00021082402031DF62E20082302031C032FD2
:100DF0002008A3022108031C210FA4022208031CBF
:100E0000220AA5022B1401300310A30DA40DA50D79
:100E1000FF3E031D042F0130AA02031DE42E2B0800
:100E2000F0002C08F1002D08F2002E08A60026087C
:100E3000F3002F08A7002708F4000A128A110E24D5
:100E4000700883120313A0007108A1007208A200A9
:100E50000800831203133008B6003108B7003208C7
:100E6000B8000310370D380DB9003908BA003A0838
:100E7000031D412F0030B0000030B1000030B2003F
:100E800008003308B6003408B7003508B80003106E
:100E9000370D380DB9003908BF003F08031D572F23
:100EA0000030B0000030B1000030B20008003F0850
:100EB0007B3EB6003608BA073008B6003108B700E6
:100EC0003208B80010300310B80CB70CB60CFF3E57
:100ED000031D632F3608B9003908BF003308B60078
:100EE0003408B7003508B80010300310B80CB70C40
:100EF000B60CFF3E031D752F3608B9003908BF0632
:100F00008030B6003608BF05B117B417FF30B305FF
:100F1000FF30B4050030B5050030BB000030BC0028
:100F20000030BD000730B6003608BE00301CA62FCA
:100F30003308BB07340803110318340A031DBC0728
:100F4000350803110318350A031DBD0701300310CE
:100F5000B20CB10CB00CFF3E031DA72F01300310E3
:100F6000B30DB40DB50DFF3E031DAF2F0130BE0212
:100F7000031D962F0930B6003608BE00301CCE2F58
:100F80003308BB07340803110318340A031DBC07D8
:100F9000350803110318350A031DBD07013003107E
:100FA000B20CB10CB00CFF3E031DCF2F013003106B
:100FB000BD0CBC0CBB0CFF3E031DD72F0130BE0285
:100FC000031DBE2F3B08F0003C08F1003D08F20075
:100FD0003A08B6003608F3003F08B7003708F400B7
:100FE0000A128A110E24700883120313B0007108CC
:100FF000B1007208B200080083010A128A11A82BFE
:02400E00B23FBF
:00000001FF
