:060000000A128A11FC2F18
:100008007808F0007908F100F2018E30FB007B08D7
:10001800F300F4010A128A1599267008F80071088D
:10002800F9007208FA000800831203135F08F90048
:100038005E08F8000A128A1104200A128A11780848
:1000480083120313A3007908A4007A08A500C0301E
:10005800A0007F30A1004430A2000A128A111421A6
:100068000A128A11831203132008C3002108C4004E
:100078002208C5000A128A1538250A128A11831225
:1000880003132708A9002608A8000A128A151325B1
:100098000A128A11831203132808C0002908C10014
:1000A8002A08C2000A128A11CC210A128A11831264
:1000B80003134008D0004108D1004208D2000A12B8
:1000C8008A1572270A128A11831203135108DF0056
:1000D8005008DE009D125E1C7528831203131D163E
:1000E8007828831203131D125F08E1005E08E00000
:1000F8000310E10CE00C0310E10CE00C60089B001D
:10010800080083120313A101F31F9728F009F109CE
:10011800F209F309F00A0319F10A0319F20A03199B
:10012800F30AA101A10AF71FA828F409F509F6099D
:10013800F709F40A0319F50A0319F60A0319F70A65
:100148000130F8007808A1060030A5000030A400AE
:100158000030A3000030A200730872047104700418
:100168000319FD28A001A00AF31BC8280130F800D4
:100178000310F00DF10DF20DF30DF80BBC28013052
:10018800F8007808A007B8280130F8000310A20D7D
:10019800A30DA40DA50DF80BCA2873087702031D3B
:1001A800DF2872087602031DDF2871087502031D17
:1001B800DF2870087402031CF0287008F402710824
:1001C800031C710FF5027208031C720FF602730804
:1001D800031C730FF702221401300310F30CF20C06
:1001E800F10CF00CFF3E031DF1280130A002031DA5
:1001F800C828210803190B29A209A309A409A509DC
:10020800A20A0319A30A0319A40A0319A50A2508AF
:10021800F3002408F2002308F1002208F000080087
:10022800831203132308A6002408A7002508A800A2
:100238000310270D280DA9002908AE002E08031D5C
:100248002C290030A0000030A1000030A2000800D6
:100258002008A6002108A7002208A8000310270DDF
:10026800280DA9002908AF002F08031D42290030D6
:10027800A0000030A1000030A20008000030AB0050
:100288000030AC000030AD0089302F07A6002608EA
:10029800AE022308A6002408A7002508A8001030ED
:1002A8000310A80CA70CA60CFF3E031D5429260812
:1002B800A9002908AF002008A6002108A7002208E5
:1002C800A80010300310A80CA70CA60CFF3E031DB5
:1002D80066292608A9002908AF068030A600260846
:1002E800AF05A417FF30A305FF30A4050030A5050E
:1002F800A117FF30A005FF30A1050030A205183076
:10030800A6002608AA0001300310AB0DAC0DAD0DF8
:10031800FF3E031D882922082502031D992921086B
:100328002402031D992920082302031CA62920085A
:10033800A3022108031C210FA4022208031C220A7D
:10034800A5022B1401300310A30DA40DA50DFF3E2B
:10035800031DA7290130AA02031D87292B08F000D5
:100368002C08F1002D08F2002E08A6002608F3003C
:100378002F08A7002708F4000A128A159926700882
:1003880083120313A0007108A1007208A2000800DC
:10039800831203134008C6004108C7004208C8007A
:1003A8000310470D480DC9004908CA004A08031D33
:1003B800E4290030C0000030C1000030C20008004D
:1003C8004308C6004408C7004508C8000310470D85
:1003D800480DC9004908CF004F08031DFA2900300D
:1003E800C0000030C1000030C20008004F087B3E4A
:1003F800C6004608CA074008C6004108C7004208A8
:10040800C80010300310C80CC70CC60CFF3E031DF3
:10041800062A4608C9004908CF004308C600440810
:10042800C7004508C80010300310C80CC70CC60C1C
:10043800FF3E031D182A4608C9004908CF06803028
:10044800C6004608CF05C117C417FF30C305FF30E3
:10045800C4050030C5050030CB000030CC000030AA
:10046800CD000730C6004608CE00401C492A430884
:10047800CB07440803110318440A031DCC07450899
:1004880003110318450A031DCD0701300310C20CE0
:10049800C10CC00CFF3E031D4A2A01300310C30DD6
:1004A800C40DC50DFF3E031D522A0130CE02031DA7
:1004B800392A0930C6004608CE00401C712A430874
:1004C800CB07440803110318440A031DCC07450849
:1004D80003110318450A031DCD0701300310C20C90
:1004E800C10CC00CFF3E031D722A01300310CD0C55
:1004F800CC0CCB0CFF3E031D7A2A0130CE02031D23
:10050800612A4B08F0004C08F1004D08F2004A0837
:10051800C6004608F3004F08C7004708F4000A124F
:100528008A159926700883120313C0007108C10048
:100538007208C2000800831203133308B900340894
:10054800BA003508BB0003103A0D3B0DBC003C084F
:10055800BF003608B9003708BA003808BB000310D6
:100568003A0D3B0DBC003C08BE003F080319C82AE1
:100578003E083F020318CF2A3F03FF3A3E07B9005F
:1005880019303902031CCF2A3608B3003708B400E3
:100598003808B50008003E08031908003F083E0265
:1005A8000318DE2A3E03FF3A3F07B9001930390223
:1005B800031808000630B9003908BD00B51BBD177F
:1005C800B81B3D17B417FF30B305FF30B405003032
:1005D800B505B717FF30B605FF30B7050030B805C9
:1005E8003E083F0203181E2B01300310B60DB70D4D
:1005F800B80DFF3E031DF92A0130BE023E083F0632
:100608000319192B0130BD023D0807390319192BAD
:10061800F82A01300310B50CB40CB30CFF3E031DCF
:100628000E2B0130B9003908BF073F083E060319F1
:10063800472B0D2B3F083E020318472B01300310B0
:10064800B30DB40DB50DFF3E031D232B0130BF02C2
:100658003E083F060319432B0130BD023D08073908
:100668000319432B222B01300310B80CB70CB60C1E
:10067800FF3E031D382B0130B9003908BE073F087B
:100688003E06031D372BBD1F592BFF30B306FF3025
:10069800B406FF30B5060130B30700300318013047
:1006A800B407003003180130B5073D1F6B2BFF302E
:1006B800B606FF30B706FF30B8060130B60700307F
:1006C80003180130B707003003180130B807BD011F
:1006D8003308B607340803110318340A031DB70793
:1006E800350803110318350A031DB807B81F8E2BE8
:1006F800FF30B606FF30B706FF30B8060130B60740
:10070800003003180130B707003003180130B8076C
:10071800BD01BD0A3608F0003708F1003808F200BC
:100728003F08B9003908F3003D08BA003A08F40058
:100738000A128A159926700883120313B3007108E8
:10074800B4007208B5000800831603138701F0305F
:10075800880001308600003083120313A90000309E
:10076800A8001330A7008830A6000A128A1565254C
:100778000A128A11003083120313A9000030A8005E
:100788001330A7008830A6000A128A15A4250A1279
:100798008A11003083160313A6000C30A7004330DB
:1007A800A8000030A900AF30AA004330AB00C50153
:1007B800C601C301C4010130B5000030B60083167C
:1007C8000313B501B6014030BD005830BE004430B7
:1007D800BF000030C0006130C1004430C200C50114
:1007E800C601C301C40183120313861B152C83168B
:1007F80003134508013EC50046080318013E003EA4
:10080800C6000130B5000030B6004308F73EC3000B
:1008180044080318013EFF3EC400FF30B300FF3018
:10082800B4008312061B322C831603134508013EBD
:10083800C50046080318013E003EC6000130B50059
:100848000030B6004308FB3EC30044080318013ECD
:10085800FF3EC400FF30B300FF30B4008312861A95
:100868004D2C831603134508013EC500460803189E
:10087800013E003EC6000130B5000030B600430816
:10088800FD3EC30044080318013EFF3EC400B30107
:10089800B4018312061A602C831603134508013E1F
:1008A800C50046080318013E003EC6000130B500E9
:1008B8000030B600B301B40183128619732C831675
:1008C80003134508013EC50046080318013E003ED3
:1008D800C6000130B5000030B600B301B401831280
:1008E80006198E2C831603134508013EC5004608D9
:1008F8000318013E003EC6000130B5000030B600C6
:100908004308033EC30044080318013E003EC400E8
:10091800B301B40183128618AB2C83160313450860
:10092800013EC50046080318013E003EC6000130DE
:10093800B5000030B6004308053EC300440803185C
:10094800013E003EC4000130B3000030B400831201
:100958000618C82C831603134508013EC50046082F
:100968000318013E003EC6000130B5000030B60055
:100978004308093EC30044080318013E003EC40072
:100988000130B3000030B400831603134508460451
:1009980003191F2D4608F1004508F0004408F3002C
:1009A8004308F2000A128A15E3250A128A1171080F
:1009B80083120313A9007008A8000A128A151325C8
:1009C8000A128A1183120313280883160313A0003E
:1009D80083120313290883160313A1008312031338
:1009E8002A0883160313A200200883120313B000F9
:1009F80083160313210883120313B100831603130C
:100A0800220883120313B2000A128A15FE240A125E
:100A18008A1183120313300883160313B700831255
:100A28000313310883160313B80083120313320823
:100A380083160313B900290883120313C000831611
:100A480003132A0883120313C100831603132B0808
:100A580083120313C2008316031337088312031388
:100A6800B30083160313380883120313B4008316E4
:100A78000313390883120313B500831603132308DD
:100A880083120313B000831603132408831203137D
:100A9800B10083160313250883120313B2000A1248
:100AA8008A15FE240A128A11831203133008B6002D
:100AB8003108B7003208B8000A128A119F220A12B8
:100AC8008A11831203133308C3003408C40035089D
:100AD800C5000A128A11CC210A128A118312031343
:100AE800400883160313AC008312031341088316CE
:100AF8000313AD0083120313420883160313AE00D9
:100B08002C0883120313B300831603132D088312D2
:100B18000313B400831603132E0883120313B500BE
:100B280083160313370883120313C00083160313B5
:100B3800380883120313C10083160313390883127C
:100B48000313C20083160313260883120313C3007A
:100B580083160313270883120313C4008316031391
:100B6800280883120313C5000A128A11CC210A121D
:100B78008A11831203134008B6004108B7004208DF
:100B8800B8000A128A119F220A128A1183120313CB
:100B9800330883160313BA00831203133408831629
:100BA8000313BB0083120313350883160313BC0019
:100BB8003708A3003808A4003908A5000030F00061
:100BC8000030F1000030F2003A08F3003B08F4006E
:100BD8003C08F5000A128A153C260A128A110318E5
:100BE8008A2E831603133D0883120313B30083165A
:100BF80003133E0883120313B400831603133F083C
:100C080083120313B500831603133A0883120313E0
:100C1800B000831603133B0883120313B100831635
:100C280003133C0883120313B2000A128A15FE2428
:100C38000A128A11831203133008B6003108B7006C
:100C48003208B8000A128A119F220A128A118312E6
:100C58000313330883160313BD00831203133408E8
:100C680083160313BE008312031335088316031378
:100C7800BF00400883120313B3008316031341080F
:100C880083120313B4008316031342088312031359
:100C9800B5000030A000C030A1004030A20083168B
:100CA80003133A0883120313A300831603133B08A4
:100CB80083120313A400831603133C08831203133F
:100CC800A5000A128A1114210A128A118312031329
:100CD8002008B6002108B7002208B8000A128A11B5
:100CE8009F220A128A1183120313330883160313EF
:100CF800C00083120313340883160313C100831240
:100D08000313350883160313C2001E2F831603131B
:100D18003A0883120313B300831603133B088312A4
:100D28000313B400831603133C0883120313B5009E
:100D380083160313400883120313B60083160313A4
:100D4800410883120313B700831603134208831262
:100D58000313B8000A128A119F220A128A118312F9
:100D68000313330883160313C000831203133408D4
:100D780083160313C1008312031335088316031364
:100D8800C2003D0883120313B300831603133E0801
:100D980083120313B400831603133F08831203134B
:100DA800B500831603133A0883120313A3008316AE
:100DB80003133B0883120313A400831603133C0890
:100DC80083120313A5000030A000C030A1004030FA
:100DD800A2000A128A1114210A128A11831203131B
:100DE8002008B0002108B1002208B2000A128A15B2
:100DF800FE240A128A11831203133008B600310840
:100E0800B7003208B8000A128A119F220A128A1102
:100E180083120313330883160313BD0083120313CD
:100E2800340883160313BE00831203133508831690
:100E38000313BF00C030F0007F30F1004430F200EF
:100E48004008F3004108F4004208F5000A128A1528
:100E58003C260A128A110318392FC030831603134F
:100E6800C0007F30C1004430C200C030F0007F3085
:100E7800F1004430F200831603133D08F3003E08E6
:100E8800F4003F08F5000A128A153C260A128A1156
:100E98000318562FC03083160313BD007F30BE00E1
:100EA8004430BF0083120313061C86187C2F061DCE
:100EB80086197C2F061E861A7C2F061F861B7C2F00
:100EC8000A128A15EB240A128A110A128A15F024CA
:100ED8000A128A11003083160313BD000030BE00C9
:100EE8000030BF000030C0000030C1000030C20038
:100EF8000A128A15F5240A128A110A128A15082577
:100F08000A128A11683083120313E300E330E20007
:100F1800E20B8C2FE30B8C2F912F83120313881570
:100F28000812881408118316031340088312031348
:100F3800D00083160313410883120313D1008316CC
:100F48000313420883120313D2000A128A15722768
:100F58000A128A1183120313510883160313B0006F
:100F680083120313500883160313AF00300883124B
:100F78000313DF00831603132F0883120313DE0005
:100F88000A128A1505270A128A11831603133D08C7
:100F980083120313D000831603133E08831203132E
:100FA800D100831603133F0883120313D2000A12D9
:100FB8008A1572270A128A1183120313510883169D
:100FC8000313B20083120313500883160313B100EE
:100FD800320883120313DF008316031331088312C8
:100FE8000313DE000A128A1118200A128A11E32B51
:080FF80083010A128A11A82BE3
:1019D60083120313971117110800831203139D1125
:1019E6001D11080083120313971517151215831678
:1019F600031307110800831203133208310430045D
:101A0600031908008030B2060800831203139D15DF
:101A16001D15121492101215831603138710080051
:101A2600FD0183120313A91F1F2DA809A909A80ADE
:101A36000319A90AFD01FD0A2808F0002908F1008A
:101A4600F2018E30AB002B08F3007D08AC002C08A9
:101A5600F4000A128A159926700883120313A80047
:101A66007108A9007208AA0008008312031364080B
:101A7600F9006508FA006608FB006708FC000230FA
:101A86000310F90DFA0DFB0DFC0DFF3E031D432D52
:101A96007C08F3007B08F2007A08F1007908F00070
:101AA6000030F700F430F6002430F5000030F40082
:101AB6000A128A118520710883120313A700700881
:101AC600A6000800831203132608F9002708FA0067
:101AD6002808FB002908FC0002300310F90DFA0D56
:101AE600FB0DFC0DFF3E031D702D02300310F90D9A
:101AF600FA0DFB0DFC0DFF3E031D792D7C08F3004E
:101B06007B08F2007A08F1007908F0000030F7004F
:101B1600F430F6002430F5000030F4000A128A1181
:101B260085207008FF3E8316031392008312031369
:101B36002908E7002808E6002708E5002608E4004B
:101B46000800831203132608F9002708FA0028085C
:101B5600FB002908FC0002300310F90DFA0DFB0DFD
:101B6600FC0DFF3E031DAF2D02300310F90DFA0DDB
:101B7600FB0DFC0DFF3E031DB82D7C08F3007B0812
:101B8600F2007A08F1007908F0000030F700F4302E
:101B9600F6002430F5000030F4000A128A11852080
:101BA6007008FF3E8316031392008312031329085D
:101BB600E7002808E6002708E5002608E4000800F4
:101BC600F601F11FED2DF009F109F00A0319F10AEA
:101BD600F601F60AF31FF82DF209F309F20A0319C2
:101BE600F30A0130F4007408F606F701F8017008EC
:101BF600710403192F2EF501F50AF11B0E2E013083
:101C06000310F00DF10DFF3E031D032E0130F4000D
:101C16007408F507002E01300310F70DF80DFF3E8E
:101C2600031D0F2E71087302031D1B2E700872020E
:101C3600031C242E7008F2027108031CF303F3023E
:101C4600771401300310F10CF00CFF3E031D252E16
:101C56000130F502031D0E2E76080319372EF709FB
:101C6600F809F70A0319F80A7808F1007708F0006E
:101C76000800F21F632E0030F6000030F7008030B7
:101C8600F8007009F9007109FA007209FB00F90AF7
:101C96000319FA0A0319FB0A7908F6077A080318E2
:101CA6007A0F562E572EF7077B0803187B0F5C2EEC
:101CB6005D2EF8077608F0007708F1007808F20044
:101CC600F51F8A2E0030F6000030F7008030F8004D
:101CD6007309F9007409FA007509FB00F90A03197A
:101CE600FA0A0319FB0A7908F6077A0803187A0F25
:101CF6007D2E7E2EF7077B0803187B0F832E842EFE
:101D0600F8077608F3007708F4007808F5008030C5
:101D1600F2068030F50675087202031D0800740885
:101D26007102031D08007308700208007308031986
:101D3600A12E720871047004031DB42E0030F00049
:101D46000030F1000030F20008000130F50075089F
:101D5600F30701300310F20CF10CF00CFF3E031DEB
:101D6600AD2EFE3072050319CF2EA82E0130F500D8
:101D76007508F3070130F007003003180130F1074A
:101D8600003003180130F20701300310F20CF10C99
:101D9600F00CFF3E031DC82EFF3072050319DE2E20
:101DA600B92E0130F30201300310F00DF10DF20DE2
:101DB600FF3E031DD72EF11BE42E023073020318DB
:101DC600D42E7318EC2EFF30F0057F30F105FF306E
:101DD600F2050310F30C7308F500F601F701103055
:101DE6000310F50DF60DF70DFF3E031DF32E7508D6
:101DF600F0047608F1047708F20474080319080061
:101E0600F2170800831203135F08F9005E08F80052
:101E16000A128A1104200A128A15780883120313FB
:101E2600A3007908A4007A08A500C030A0007F307E
:101E3600A1004430A2000A128A1114210A128A153E
:101E4600831203132008C3002108C4002208C5001A
:101E56000A128A1538250A128A15831203132708CF
:101E6600A9002608A8000A128A1513250A128A153F
:101E7600831203132808C0002908C1002A08C200DB
:101E86000A128A11CC210A128A15831203134008FA
:101E9600D0004108D1004208D2000A128A157227E2
:101EA6000A128A15831203135108DF005008DE0058
:101EB60097125E1C622F831203131716652F831267
:101EC600031317125F08E1005E08E0000310E10C3F
:101ED600E00C0310E10CE00C60089500080083128A
:101EE60003135008D4005108D5005208D600031039
:101EF600550D560DD7005708DD005D08031D8C2FC4
:101F06000030D3000030D2000030D1000030D000C5
:101F160008005008D4005108D5005208D6001730E2
:101F26000310D60CD50CD40CFF3E031D932F54087A
:101F3600D7005708D800D117FF30D005FF30D1059C
:101F46000030D2055008D9005108DA005208DB00EB
:101F5600DC018E30DD02DD1FCE2F5D08803A8F3E1C
:101F66000318BE2F0030D3000030D2000030D1005D
:101F76000030D000080001300310DC0CDB0CDA0C5A
:101F8600D90CFF3E031DBF2F0130D4005408DD07D6
:101F96000319E92FBE2F18305D02031CE62F00300F
:101FA600D3000030D2000030D1000030D00008004D
:101FB6000130D4000310D90DDA0DDB0DDC0DD40B86
:101FC600DD2F0130DD025D08031DDB2F58080319E4
:101FD600F72FD909DA09DB09DC09D90A0319DA0A64
:101FE6000319DB0A0319DC0A5C08D3005B08D2007C
:0A1FF6005A08D1005908D000080075
:02400E00B23FBF
:00000001FF
