:060000000A128A11FC2F18
:1004A40083120313971517151215831603130711D7
:1004B4000800831203139D151D15121492101215B2
:1004C40083160313871008007808F0007908F100F8
:1004D400F2018E30FB007B08F300F4010A128A114A
:1004E4004A237008F8007108F9007208FA0008003D
:1004F400FD0183120313A91F862AA809A909A80AC2
:100504000319A90AFD01FD0A2808F0002908F100D1
:10051400F2018E30AB002B08F3007D08AC002C08F0
:10052400F4000A128A114A23700883120313A800E4
:100534007108A9007208AA0008008312031358085E
:10054400F9005908FA005A08FB005B08FC00023065
:100554000310F90DFA0DFB0DFC0DFF3E031DAA2A35
:100564007C08F3007B08F2007A08F1007908F000B7
:100574000030F700F430F6002430F5000030F400C9
:100584000A128A111E25710883120313A70070082A
:10059400A6000800831203132608F9002708FA00AE
:1005A4002808FB002908FC0002300310F90DFA0D9D
:1005B400FB0DFC0DFF3E031DD72A02300310F90D7D
:1005C400FA0DFB0DFC0DFF3E031DE02A7C08F30031
:1005D4007B08F2007A08F1007908F0000030F70097
:1005E400F430F6002430F5000030F4000A128A11C9
:1005F4001E257008FF3E8316031392008312031313
:100604002908DB002808DA002708D9002608D800C2
:100614000800831203132608F9002708FA002808A3
:10062400FB002908FC0002300310F90DFA0DFB0D44
:10063400FC0DFF3E031D162B02300310F90DFA0DBD
:10064400FB0DFC0DFF3E031D1F2B7C08F3007B08F4
:10065400F2007A08F1007908F0000030F700F43075
:10066400F6002430F5000030F4000A128A111E2529
:100674007008FF3E831603139200831203132908A4
:10068400DB002808DA002708D9002608D80008006B
:1006940073080319522B720871047004031D652B2F
:1006A4000030F0000030F1000030F20008000130AA
:1006B400F5007508F30701300310F20CF10CF00C8F
:1006C400FF3E031D5E2BFE3072050319802B592B50
:1006D4000130F5007508F3070130F0070030031806
:1006E4000130F107003003180130F2070130031024
:1006F400F20CF10CF00CFF3E031D792BFF30720558
:1007040003198F2B6A2B0130F30201300310F00D13
:10071400F10DF20DFF3E031D882BF11B952B0230CA
:1007240073020318852B73189D2BFF30F0057F305F
:10073400F105FF30F2050310F30C7308F500F60120
:10074400F70110300310F50DF60DF70DFF3E031DF4
:10075400A42B7508F0047608F1047708F2047408F1
:1007640003190800F2170800831203134F08F90055
:100774004E08F8000A128A1166220A128A117808B1
:1007840083120313A3007908A4007A08A500C030DB
:10079400A0007F30A1004430A2000A128A11AD25C6
:1007A4000A128A11831203132008B3002108B4002B
:1007B4002208B5000A128A119F220A128A11831292
:1007C40003132708A9002608A8000A128A117A220E
:1007D4000A128A11831203132808B0002908B100F1
:1007E4002A08B2000A128A1129270A128A118312CE
:1007F40003133008C0003108C1003208C2000A12D5
:100804008A1190240A128A11831203134108CF001B
:100814004008CE0097124E1C132C83120313171694
:10082400162C8312031317124F08D1004E08D00060
:100834000310D10CD00C0310D10CD00C500895002F
:100844000800831203134F08F9004E08F8000A1237
:100854008A1166220A128A11780883120313A300EC
:100864007908A4007A08A500C030A0007F30A10058
:100874004430A2000A128A11AD250A128A11831289
:1008840003132008B3002108B4002208B5000A129B
:100894008A119F220A128A11831203132708A900BE
:1008A4002608A8000A128A117A220A128A118312CF
:1008B40003132808B0002908B1002A08B2000A125C
:1008C4008A1129270A128A11831203133008C000DF
:1008D4003108C1003208C2000A128A1190240A1297
:1008E4008A11831203134108CF004008CE009D12E1
:1008F4004E1C802C831203131D16832C83120313A6
:100904001D124F08D1004E08D0000310D10CD00C9A
:100914000310D10CD00C50089B0008008312031361
:100924004008C4004108C5004208C6000310450D34
:10093400460DC7004708CD004D08031DAA2C003002
:10094400C3000030C2000030C1000030C000080005
:100954004008C4004108C5004208C600173003100F
:10096400C60CC50CC40CFF3E031DB12C4408C700C3
:100974004708C800C117FF30C005FF30C10500306B
:10098400C2054008C9004108CA004208CB00CC0196
:100994008E30CD02CD1FEC2C4D08803A8F3E0318CB
:1009A400DC2C0030C3000030C2000030C100003035
:1009B400C000080001300310CC0CCB0CCA0CC90CCD
:1009C400FF3E031DDD2C0130C4004408CD0703198C
:1009D400072DDC2C18304D02031C042D0030C300FD
:1009E4000030C2000030C1000030C00008000130F7
:1009F400C4000310C90DCA0DCB0DCC0DC40BFB2CC8
:100A04000130CD024D08031DF92C48080319152D9A
:100A1400C909CA09CB09CC09C90A0319CA0A0319A5
:100A2400CB0A0319CC0A4C08C3004B08C2004A087D
:100A3400C1004908C000080083120313A101F31F79
:100A4400302DF009F109F209F309F00A0319F10A4A
:100A54000319F20A0319F30AA101A10AF71F412D90
:100A6400F409F509F609F709F40A0319F50A031953
:100A7400F60A0319F70A0130F8007808A1060030D5
:100A8400A5000030A4000030A3000030A2007308C9
:100A94007204710470040319962DA001A00AF31BBB
:100AA400612D0130F8000310F00DF10DF20DF30D7E
:100AB400F80B552D0130F8007808A007512D0130AE
:100AC400F8000310A20DA30DA40DA50DF80B632DC2
:100AD40073087702031D782D72087602031D782DA2
:100AE40071087502031D782D70087402031C892D8A
:100AF4007008F4027108031C710FF5027208031CDC
:100B0400720FF6027308031C730FF70222140130EC
:100B14000310F30CF20CF10CF00CFF3E031D8A2DB4
:100B24000130A002031D612D21080319A42DA2097F
:100B3400A309A409A509A20A0319A30A0319A40A6B
:100B44000319A50A2508F3002408F2002308F1007C
:100B54002208F0000800831203132308A6002408C7
:100B6400A7002508A8000310270D280DA9002908AF
:100B7400AE002E08031DC52D0030A0000030A100DA
:100B84000030A20008002008A6002108A7002208BF
:100B9400A8000310270D280DA9002908AF002F086D
:100BA400031DDB2D0030A0000030A1000030A200A6
:100BB40008000030AB000030AC000030AD008930DC
:100BC4002F07A6002608AE022308A6002408A700C3
:100BD4002508A80010300310A80CA70CA60CFF3E93
:100BE400031DED2D2608A9002908AF002008A60042
:100BF4002108A7002208A80010300310A80CA70C95
:100C0400A60CFF3E031DFF2D2608A9002908AF06E8
:100C14008030A6002608AF05A417FF30A305FF30D7
:100C2400A4050030A505A117FF30A005FF30A105DC
:100C34000030A2051830A6002608AA0001300310CF
:100C4400AB0DAC0DAD0DFF3E031D212E2208250278
:100C5400031D322E21082402031D322E20082302F4
:100C6400031C3F2E2008A3022108031C210FA40209
:100C74002208031C220AA5022B1401300310A30D21
:100C8400A40DA50DFF3E031D402E0130AA02031D35
:100C9400202E2B08F0002C08F1002D08F2002E085D
:100CA400A6002608F3002F08A7002708F4000A125C
:100CB4008A114A23700883120313A0007108A1004B
:100CC4007208A2000800831603138701880101300B
:100CD4008600003083120313A9000030A8001330EB
:100CE400A7008830A6000A128A11CC220A128A119F
:100CF400003083120313A9000030A8001330A700AA
:100D04008830A6000A128A110B230A128A11831250
:100D14000313861D061A902E8430B72E861F061BD9
:100D2400972E861A972EC030B72E861F061B9C2E30
:100D3400D430B72E861BA02EE830B72E061F861A95
:100D4400A52EB130B72E061F861AAC2E061AAC2E6D
:100D5400A230B72E861E061AB12E9830B72E861EE4
:100D6400061ABC2E8619BC2E8E30D4000330D50052
:100D74006130F42E0618C42E8430D4000330D5001C
:100D8400B130F42E061C8618CD2E8430D4000330E6
:100D9400D5009D30F42E061C8618D82E0619D82EA0
:100DA4008430D4000330D5008E30F42E861C06190E
:100DB400E12E8430D4000330D5008430F42E861C18
:100DC4000619EC2E8619EC2E8430D4000330D5009D
:100DD4007A30F42E061D8619F72E8430D4000330A1
:100DE400D5006B30D6000330D7006830831203136C
:100DF400D300E330D200D20BFD2ED30BFD2E022FF5
:100E04008312031388150812881408110A128A1110
:100E140052220A128A110A128A115B220A128A11B8
:100E2400831203135508CF005408CE000A128A1106
:100E3400B6230A128A11831203135708CF005608E7
:100E4400CE000A128A1123240A128A11892E8312CF
:100E540003133008B6003108B7003208B800031095
:100E6400370D380DB9003908BA003A08031D412F6F
:100E74000030B0000030B1000030B2000800330888
:100E8400B6003408B7003508B8000310370D380D24
:100E9400B9003908BF003F08031D572F0030B000C8
:100EA4000030B1000030B20008003F087B3EB600BD
:100EB4003608BA073008B6003108B7003208B8005F
:100EC40010300310B80CB70CB60CFF3E031D632F93
:100ED4003608B9003908BF003308B6003408B70033
:100EE4003508B80010300310B80CB70CB60CFF3E30
:100EF400031D752F3608B9003908BF068030B600C7
:100F04003608BF05B117B417FF30B305FF30B40579
:100F14000030B5050030BB000030BC000030BD001F
:100F24000730B6003608BE00301CA62F3308BB07B6
:100F3400340803110318340A031DBC0735080311D0
:100F44000318350A031DBD0701300310B20CB10CA0
:100F5400B00CFF3E031DA72F01300310B30DB40DD9
:100F6400B50DFF3E031DAF2F0130BE02031D962FAA
:100F74000930B6003608BE00301CCE2F3308BB073C
:100F8400340803110318340A031DBC073508031180
:100F94000318350A031DBD0701300310B20CB10C50
:100FA400B00CFF3E031DCF2F01300310BD0CBC0C51
:100FB400BB0CFF3E031DD72F0130BE02031DBE2F05
:100FC4003B08F0003C08F1003D08F2003A08B60086
:100FD4003608F3003F08B7003708F4000A128A11F4
:100FE4004A23700883120313B0007108B100720819
:0C0FF400B200080083010A128A11652E69
:02400E00B23FBF
:00000001FF
